{
	"pr6.sol": {
		"LoopExamples": {
			"abi": [
				{
					"inputs": [
						{
							"internalType": "uint256",
							"name": "n",
							"type": "uint256"
						}
					],
					"name": "doWhileLoop",
					"outputs": [
						{
							"internalType": "uint256",
							"name": "",
							"type": "uint256"
						}
					],
					"stateMutability": "pure",
					"type": "function"
				},
				{
					"inputs": [
						{
							"internalType": "uint256",
							"name": "n",
							"type": "uint256"
						}
					],
					"name": "forLoop",
					"outputs": [
						{
							"internalType": "uint256",
							"name": "",
							"type": "uint256"
						}
					],
					"stateMutability": "pure",
					"type": "function"
				},
				{
					"inputs": [
						{
							"internalType": "uint256",
							"name": "n",
							"type": "uint256"
						}
					],
					"name": "whileLoop",
					"outputs": [
						{
							"internalType": "uint256",
							"name": "",
							"type": "uint256"
						}
					],
					"stateMutability": "pure",
					"type": "function"
				}
			],
			"devdoc": {
				"kind": "dev",
				"methods": {},
				"version": 1
			},
			"evm": {
				"assembly": "    /* \"pr6.sol\":25:522  contract LoopExamples {... */\n  mstore(0x40, 0x80)\n  callvalue\n  dup1\n  iszero\n  tag_1\n  jumpi\n  revert(0x00, 0x00)\ntag_1:\n  pop\n  dataSize(sub_0)\n  dup1\n  dataOffset(sub_0)\n  0x00\n  codecopy\n  0x00\n  return\nstop\n\nsub_0: assembly {\n        /* \"pr6.sol\":25:522  contract LoopExamples {... */\n      mstore(0x40, 0x80)\n      callvalue\n      dup1\n      iszero\n      tag_1\n      jumpi\n      revert(0x00, 0x00)\n    tag_1:\n      pop\n      jumpi(tag_2, lt(calldatasize, 0x04))\n      shr(0xe0, calldataload(0x00))\n      dup1\n      0x456901e4\n      eq\n      tag_3\n      jumpi\n      dup1\n      0x5a5e80e7\n      eq\n      tag_4\n      jumpi\n      dup1\n      0xff762358\n      eq\n      tag_5\n      jumpi\n    tag_2:\n      revert(0x00, 0x00)\n        /* \"pr6.sol\":50:181  function forLoop(uint n) public pure returns (uint) {... */\n    tag_3:\n      tag_6\n      0x04\n      dup1\n      calldatasize\n      sub\n      dup2\n      add\n      swap1\n      tag_7\n      swap2\n      swap1\n      tag_8\n      jump\t// in\n    tag_7:\n      tag_9\n      jump\t// in\n    tag_6:\n      mload(0x40)\n      tag_10\n      swap2\n      swap1\n      tag_11\n      jump\t// in\n    tag_10:\n      mload(0x40)\n      dup1\n      swap2\n      sub\n      swap1\n      return\n        /* \"pr6.sol\":183:320  function whileLoop(uint n) public pure returns (uint) {... */\n    tag_4:\n      tag_12\n      0x04\n      dup1\n      calldatasize\n      sub\n      dup2\n      add\n      swap1\n      tag_13\n      swap2\n      swap1\n      tag_8\n      jump\t// in\n    tag_13:\n      tag_14\n      jump\t// in\n    tag_12:\n      mload(0x40)\n      tag_15\n      swap2\n      swap1\n      tag_11\n      jump\t// in\n    tag_15:\n      mload(0x40)\n      dup1\n      swap2\n      sub\n      swap1\n      return\n        /* \"pr6.sol\":322:519  function doWhileLoop(uint n) public pure returns (uint) {... */\n    tag_5:\n      tag_16\n      0x04\n      dup1\n      calldatasize\n      sub\n      dup2\n      add\n      swap1\n      tag_17\n      swap2\n      swap1\n      tag_8\n      jump\t// in\n    tag_17:\n      tag_18\n      jump\t// in\n    tag_16:\n      mload(0x40)\n      tag_19\n      swap2\n      swap1\n      tag_11\n      jump\t// in\n    tag_19:\n      mload(0x40)\n      dup1\n      swap2\n      sub\n      swap1\n      return\n        /* \"pr6.sol\":50:181  function forLoop(uint n) public pure returns (uint) {... */\n    tag_9:\n        /* \"pr6.sol\":96:100  uint */\n      0x00\n        /* \"pr6.sol\":105:113  uint sum */\n      0x00\n        /* \"pr6.sol\":116:117  0 */\n      0x00\n        /* \"pr6.sol\":105:117  uint sum = 0 */\n      swap1\n      pop\n        /* \"pr6.sol\":125:131  uint i */\n      0x00\n        /* \"pr6.sol\":134:135  1 */\n      0x01\n        /* \"pr6.sol\":125:135  uint i = 1 */\n      swap1\n      pop\n        /* \"pr6.sol\":120:165  for (uint i = 1; i <= n; i++) {... */\n    tag_21:\n        /* \"pr6.sol\":142:143  n */\n      dup4\n        /* \"pr6.sol\":137:138  i */\n      dup2\n        /* \"pr6.sol\":137:143  i <= n */\n      gt\n        /* \"pr6.sol\":120:165  for (uint i = 1; i <= n; i++) {... */\n      tag_22\n      jumpi\n        /* \"pr6.sol\":160:161  i */\n      dup1\n        /* \"pr6.sol\":153:161  sum += i */\n      dup3\n      tag_24\n      swap2\n      swap1\n      tag_25\n      jump\t// in\n    tag_24:\n      swap2\n      pop\n        /* \"pr6.sol\":145:148  i++ */\n      dup1\n      dup1\n      tag_26\n      swap1\n      tag_27\n      jump\t// in\n    tag_26:\n      swap2\n      pop\n      pop\n        /* \"pr6.sol\":120:165  for (uint i = 1; i <= n; i++) {... */\n      jump(tag_21)\n    tag_22:\n      pop\n        /* \"pr6.sol\":174:177  sum */\n      dup1\n        /* \"pr6.sol\":167:177  return sum */\n      swap2\n      pop\n      pop\n        /* \"pr6.sol\":50:181  function forLoop(uint n) public pure returns (uint) {... */\n      swap2\n      swap1\n      pop\n      jump\t// out\n        /* \"pr6.sol\":183:320  function whileLoop(uint n) public pure returns (uint) {... */\n    tag_14:\n        /* \"pr6.sol\":231:235  uint */\n      0x00\n        /* \"pr6.sol\":240:248  uint sum */\n      0x00\n        /* \"pr6.sol\":251:252  0 */\n      0x00\n        /* \"pr6.sol\":240:252  uint sum = 0 */\n      swap1\n      pop\n        /* \"pr6.sol\":255:261  uint i */\n      0x00\n        /* \"pr6.sol\":264:265  1 */\n      0x01\n        /* \"pr6.sol\":255:265  uint i = 1 */\n      swap1\n      pop\n        /* \"pr6.sol\":268:304  while (i <= n) {... */\n    tag_29:\n        /* \"pr6.sol\":280:281  n */\n      dup4\n        /* \"pr6.sol\":275:276  i */\n      dup2\n        /* \"pr6.sol\":275:281  i <= n */\n      gt\n        /* \"pr6.sol\":268:304  while (i <= n) {... */\n      tag_30\n      jumpi\n        /* \"pr6.sol\":293:294  i */\n      dup1\n        /* \"pr6.sol\":286:294  sum += i */\n      dup3\n      tag_31\n      swap2\n      swap1\n      tag_25\n      jump\t// in\n    tag_31:\n      swap2\n      pop\n        /* \"pr6.sol\":297:300  i++ */\n      dup1\n      dup1\n      tag_32\n      swap1\n      tag_27\n      jump\t// in\n    tag_32:\n      swap2\n      pop\n      pop\n        /* \"pr6.sol\":268:304  while (i <= n) {... */\n      jump(tag_29)\n    tag_30:\n        /* \"pr6.sol\":313:316  sum */\n      dup2\n        /* \"pr6.sol\":306:316  return sum */\n      swap3\n      pop\n      pop\n      pop\n        /* \"pr6.sol\":183:320  function whileLoop(uint n) public pure returns (uint) {... */\n      swap2\n      swap1\n      pop\n      jump\t// out\n        /* \"pr6.sol\":322:519  function doWhileLoop(uint n) public pure returns (uint) {... */\n    tag_18:\n        /* \"pr6.sol\":372:376  uint */\n      0x00\n        /* \"pr6.sol\":381:389  uint sum */\n      0x00\n        /* \"pr6.sol\":392:393  0 */\n      0x00\n        /* \"pr6.sol\":381:393  uint sum = 0 */\n      swap1\n      pop\n        /* \"pr6.sol\":396:402  uint i */\n      0x00\n        /* \"pr6.sol\":405:406  1 */\n      0x01\n        /* \"pr6.sol\":396:406  uint i = 1 */\n      swap1\n      pop\n        /* \"pr6.sol\":418:419  0 */\n      0x00\n        /* \"pr6.sol\":413:414  n */\n      dup5\n        /* \"pr6.sol\":413:419  n == 0 */\n      sub\n        /* \"pr6.sol\":409:429  if (n == 0) return 0 */\n      tag_34\n      jumpi\n        /* \"pr6.sol\":428:429  0 */\n      0x00\n        /* \"pr6.sol\":421:429  return 0 */\n      swap3\n      pop\n      pop\n      pop\n      jump(tag_33)\n        /* \"pr6.sol\":409:429  if (n == 0) return 0 */\n    tag_34:\n        /* \"pr6.sol\":463:503  do {... */\n    tag_35:\n        /* \"pr6.sol\":476:477  i */\n      dup1\n        /* \"pr6.sol\":469:477  sum += i */\n      dup3\n      tag_38\n      swap2\n      swap1\n      tag_25\n      jump\t// in\n    tag_38:\n      swap2\n      pop\n        /* \"pr6.sol\":480:483  i++ */\n      dup1\n      dup1\n      tag_39\n      swap1\n      tag_27\n      jump\t// in\n    tag_39:\n      swap2\n      pop\n      pop\n        /* \"pr6.sol\":500:501  n */\n      dup4\n        /* \"pr6.sol\":495:496  i */\n      dup2\n        /* \"pr6.sol\":495:501  i <= n */\n      gt\n      iszero\n        /* \"pr6.sol\":463:503  do {... */\n      tag_35\n      jumpi\n        /* \"pr6.sol\":512:515  sum */\n      dup2\n        /* \"pr6.sol\":505:515  return sum */\n      swap3\n      pop\n      pop\n      pop\n        /* \"pr6.sol\":322:519  function doWhileLoop(uint n) public pure returns (uint) {... */\n    tag_33:\n      swap2\n      swap1\n      pop\n      jump\t// out\n        /* \"#utility.yul\":88:205   */\n    tag_41:\n        /* \"#utility.yul\":197:198   */\n      0x00\n        /* \"#utility.yul\":194:195   */\n      0x00\n        /* \"#utility.yul\":187:199   */\n      revert\n        /* \"#utility.yul\":334:411   */\n    tag_43:\n        /* \"#utility.yul\":371:378   */\n      0x00\n        /* \"#utility.yul\":400:405   */\n      dup2\n        /* \"#utility.yul\":389:405   */\n      swap1\n      pop\n        /* \"#utility.yul\":334:411   */\n      swap2\n      swap1\n      pop\n      jump\t// out\n        /* \"#utility.yul\":417:539   */\n    tag_44:\n        /* \"#utility.yul\":490:514   */\n      tag_54\n        /* \"#utility.yul\":508:513   */\n      dup2\n        /* \"#utility.yul\":490:514   */\n      tag_43\n      jump\t// in\n    tag_54:\n        /* \"#utility.yul\":483:488   */\n      dup2\n        /* \"#utility.yul\":480:515   */\n      eq\n        /* \"#utility.yul\":470:533   */\n      tag_55\n      jumpi\n        /* \"#utility.yul\":529:530   */\n      0x00\n        /* \"#utility.yul\":526:527   */\n      0x00\n        /* \"#utility.yul\":519:531   */\n      revert\n        /* \"#utility.yul\":470:533   */\n    tag_55:\n        /* \"#utility.yul\":417:539   */\n      pop\n      jump\t// out\n        /* \"#utility.yul\":545:684   */\n    tag_45:\n        /* \"#utility.yul\":591:596   */\n      0x00\n        /* \"#utility.yul\":629:635   */\n      dup2\n        /* \"#utility.yul\":616:636   */\n      calldataload\n        /* \"#utility.yul\":607:636   */\n      swap1\n      pop\n        /* \"#utility.yul\":645:678   */\n      tag_57\n        /* \"#utility.yul\":672:677   */\n      dup2\n        /* \"#utility.yul\":645:678   */\n      tag_44\n      jump\t// in\n    tag_57:\n        /* \"#utility.yul\":545:684   */\n      swap3\n      swap2\n      pop\n      pop\n      jump\t// out\n        /* \"#utility.yul\":690:1019   */\n    tag_8:\n        /* \"#utility.yul\":749:755   */\n      0x00\n        /* \"#utility.yul\":798:800   */\n      0x20\n        /* \"#utility.yul\":786:795   */\n      dup3\n        /* \"#utility.yul\":777:784   */\n      dup5\n        /* \"#utility.yul\":773:796   */\n      sub\n        /* \"#utility.yul\":769:801   */\n      slt\n        /* \"#utility.yul\":766:885   */\n      iszero\n      tag_59\n      jumpi\n        /* \"#utility.yul\":804:883   */\n      tag_60\n      tag_41\n      jump\t// in\n    tag_60:\n        /* \"#utility.yul\":766:885   */\n    tag_59:\n        /* \"#utility.yul\":924:925   */\n      0x00\n        /* \"#utility.yul\":949:1002   */\n      tag_61\n        /* \"#utility.yul\":994:1001   */\n      dup5\n        /* \"#utility.yul\":985:991   */\n      dup3\n        /* \"#utility.yul\":974:983   */\n      dup6\n        /* \"#utility.yul\":970:992   */\n      add\n        /* \"#utility.yul\":949:1002   */\n      tag_45\n      jump\t// in\n    tag_61:\n        /* \"#utility.yul\":939:1002   */\n      swap2\n      pop\n        /* \"#utility.yul\":895:1012   */\n      pop\n        /* \"#utility.yul\":690:1019   */\n      swap3\n      swap2\n      pop\n      pop\n      jump\t// out\n        /* \"#utility.yul\":1025:1143   */\n    tag_46:\n        /* \"#utility.yul\":1112:1136   */\n      tag_63\n        /* \"#utility.yul\":1130:1135   */\n      dup2\n        /* \"#utility.yul\":1112:1136   */\n      tag_43\n      jump\t// in\n    tag_63:\n        /* \"#utility.yul\":1107:1110   */\n      dup3\n        /* \"#utility.yul\":1100:1137   */\n      mstore\n        /* \"#utility.yul\":1025:1143   */\n      pop\n      pop\n      jump\t// out\n        /* \"#utility.yul\":1149:1371   */\n    tag_11:\n        /* \"#utility.yul\":1242:1246   */\n      0x00\n        /* \"#utility.yul\":1280:1282   */\n      0x20\n        /* \"#utility.yul\":1269:1278   */\n      dup3\n        /* \"#utility.yul\":1265:1283   */\n      add\n        /* \"#utility.yul\":1257:1283   */\n      swap1\n      pop\n        /* \"#utility.yul\":1293:1364   */\n      tag_65\n        /* \"#utility.yul\":1361:1362   */\n      0x00\n        /* \"#utility.yul\":1350:1359   */\n      dup4\n        /* \"#utility.yul\":1346:1363   */\n      add\n        /* \"#utility.yul\":1337:1343   */\n      dup5\n        /* \"#utility.yul\":1293:1364   */\n      tag_46\n      jump\t// in\n    tag_65:\n        /* \"#utility.yul\":1149:1371   */\n      swap3\n      swap2\n      pop\n      pop\n      jump\t// out\n        /* \"#utility.yul\":1377:1557   */\n    tag_47:\n        /* \"#utility.yul\":1425:1502   */\n      0x4e487b7100000000000000000000000000000000000000000000000000000000\n        /* \"#utility.yul\":1422:1423   */\n      0x00\n        /* \"#utility.yul\":1415:1503   */\n      mstore\n        /* \"#utility.yul\":1522:1526   */\n      0x11\n        /* \"#utility.yul\":1519:1520   */\n      0x04\n        /* \"#utility.yul\":1512:1527   */\n      mstore\n        /* \"#utility.yul\":1546:1550   */\n      0x24\n        /* \"#utility.yul\":1543:1544   */\n      0x00\n        /* \"#utility.yul\":1536:1551   */\n      revert\n        /* \"#utility.yul\":1563:1754   */\n    tag_25:\n        /* \"#utility.yul\":1603:1606   */\n      0x00\n        /* \"#utility.yul\":1622:1642   */\n      tag_68\n        /* \"#utility.yul\":1640:1641   */\n      dup3\n        /* \"#utility.yul\":1622:1642   */\n      tag_43\n      jump\t// in\n    tag_68:\n        /* \"#utility.yul\":1617:1642   */\n      swap2\n      pop\n        /* \"#utility.yul\":1656:1676   */\n      tag_69\n        /* \"#utility.yul\":1674:1675   */\n      dup4\n        /* \"#utility.yul\":1656:1676   */\n      tag_43\n      jump\t// in\n    tag_69:\n        /* \"#utility.yul\":1651:1676   */\n      swap3\n      pop\n        /* \"#utility.yul\":1699:1700   */\n      dup3\n        /* \"#utility.yul\":1696:1697   */\n      dup3\n        /* \"#utility.yul\":1692:1701   */\n      add\n        /* \"#utility.yul\":1685:1701   */\n      swap1\n      pop\n        /* \"#utility.yul\":1720:1723   */\n      dup1\n        /* \"#utility.yul\":1717:1718   */\n      dup3\n        /* \"#utility.yul\":1714:1724   */\n      gt\n        /* \"#utility.yul\":1711:1747   */\n      iszero\n      tag_70\n      jumpi\n        /* \"#utility.yul\":1727:1745   */\n      tag_71\n      tag_47\n      jump\t// in\n    tag_71:\n        /* \"#utility.yul\":1711:1747   */\n    tag_70:\n        /* \"#utility.yul\":1563:1754   */\n      swap3\n      swap2\n      pop\n      pop\n      jump\t// out\n        /* \"#utility.yul\":1760:1993   */\n    tag_27:\n        /* \"#utility.yul\":1799:1802   */\n      0x00\n        /* \"#utility.yul\":1822:1846   */\n      tag_73\n        /* \"#utility.yul\":1840:1845   */\n      dup3\n        /* \"#utility.yul\":1822:1846   */\n      tag_43\n      jump\t// in\n    tag_73:\n        /* \"#utility.yul\":1813:1846   */\n      swap2\n      pop\n        /* \"#utility.yul\":1868:1934   */\n      0xffffffffffffffffffffffffffffffffffffffffffffffffffffffffffffffff\n        /* \"#utility.yul\":1861:1866   */\n      dup3\n        /* \"#utility.yul\":1858:1935   */\n      sub\n        /* \"#utility.yul\":1855:1958   */\n      tag_74\n      jumpi\n        /* \"#utility.yul\":1938:1956   */\n      tag_75\n      tag_47\n      jump\t// in\n    tag_75:\n        /* \"#utility.yul\":1855:1958   */\n    tag_74:\n        /* \"#utility.yul\":1985:1986   */\n      0x01\n        /* \"#utility.yul\":1978:1983   */\n      dup3\n        /* \"#utility.yul\":1974:1987   */\n      add\n        /* \"#utility.yul\":1967:1987   */\n      swap1\n      pop\n        /* \"#utility.yul\":1760:1993   */\n      swap2\n      swap1\n      pop\n      jump\t// out\n\n    auxdata: 0xa2646970667358221220af63ee2566c55c53daaf60ada4c2fc36995f22e1e3a116c6299a8cb44467747264736f6c634300081e0033\n}\n",
				"bytecode": {
					"linkReferences": {},
					"object": "6080604052348015600e575f5ffd5b506102ff8061001c5f395ff3fe608060405234801561000f575f5ffd5b506004361061003f575f3560e01c8063456901e4146100435780635a5e80e714610073578063ff762358146100a3575b5f5ffd5b61005d600480360381019061005891906101cf565b6100d3565b60405161006a9190610209565b60405180910390f35b61008d600480360381019061008891906101cf565b610110565b60405161009a9190610209565b60405180910390f35b6100bd60048036038101906100b891906101cf565b61014d565b6040516100ca9190610209565b60405180910390f35b5f5f5f90505f600190505b8381116101065780826100f1919061024f565b915080806100fe90610282565b9150506100de565b5080915050919050565b5f5f5f90505f600190505b83811161014357808261012e919061024f565b9150808061013b90610282565b91505061011b565b8192505050919050565b5f5f5f90505f600190505f8403610168575f92505050610193565b5b8082610175919061024f565b9150808061018290610282565b915050838111156101695781925050505b919050565b5f5ffd5b5f819050919050565b6101ae8161019c565b81146101b8575f5ffd5b50565b5f813590506101c9816101a5565b92915050565b5f602082840312156101e4576101e3610198565b5b5f6101f1848285016101bb565b91505092915050565b6102038161019c565b82525050565b5f60208201905061021c5f8301846101fa565b92915050565b7f4e487b71000000000000000000000000000000000000000000000000000000005f52601160045260245ffd5b5f6102598261019c565b91506102648361019c565b925082820190508082111561027c5761027b610222565b5b92915050565b5f61028c8261019c565b91507fffffffffffffffffffffffffffffffffffffffffffffffffffffffffffffffff82036102be576102bd610222565b5b60018201905091905056fea2646970667358221220af63ee2566c55c53daaf60ada4c2fc36995f22e1e3a116c6299a8cb44467747264736f6c634300081e0033",
					"opcodes": "PUSH1 0x80 PUSH1 0x40 MSTORE CALLVALUE DUP1 ISZERO PUSH1 0xE JUMPI PUSH0 PUSH0 REVERT JUMPDEST POP PUSH2 0x2FF DUP1 PUSH2 0x1C PUSH0 CODECOPY PUSH0 RETURN INVALID PUSH1 0x80 PUSH1 0x40 MSTORE CALLVALUE DUP1 ISZERO PUSH2 0xF JUMPI PUSH0 PUSH0 REVERT JUMPDEST POP PUSH1 0x4 CALLDATASIZE LT PUSH2 0x3F JUMPI PUSH0 CALLDATALOAD PUSH1 0xE0 SHR DUP1 PUSH4 0x456901E4 EQ PUSH2 0x43 JUMPI DUP1 PUSH4 0x5A5E80E7 EQ PUSH2 0x73 JUMPI DUP1 PUSH4 0xFF762358 EQ PUSH2 0xA3 JUMPI JUMPDEST PUSH0 PUSH0 REVERT JUMPDEST PUSH2 0x5D PUSH1 0x4 DUP1 CALLDATASIZE SUB DUP2 ADD SWAP1 PUSH2 0x58 SWAP2 SWAP1 PUSH2 0x1CF JUMP JUMPDEST PUSH2 0xD3 JUMP JUMPDEST PUSH1 0x40 MLOAD PUSH2 0x6A SWAP2 SWAP1 PUSH2 0x209 JUMP JUMPDEST PUSH1 0x40 MLOAD DUP1 SWAP2 SUB SWAP1 RETURN JUMPDEST PUSH2 0x8D PUSH1 0x4 DUP1 CALLDATASIZE SUB DUP2 ADD SWAP1 PUSH2 0x88 SWAP2 SWAP1 PUSH2 0x1CF JUMP JUMPDEST PUSH2 0x110 JUMP JUMPDEST PUSH1 0x40 MLOAD PUSH2 0x9A SWAP2 SWAP1 PUSH2 0x209 JUMP JUMPDEST PUSH1 0x40 MLOAD DUP1 SWAP2 SUB SWAP1 RETURN JUMPDEST PUSH2 0xBD PUSH1 0x4 DUP1 CALLDATASIZE SUB DUP2 ADD SWAP1 PUSH2 0xB8 SWAP2 SWAP1 PUSH2 0x1CF JUMP JUMPDEST PUSH2 0x14D JUMP JUMPDEST PUSH1 0x40 MLOAD PUSH2 0xCA SWAP2 SWAP1 PUSH2 0x209 JUMP JUMPDEST PUSH1 0x40 MLOAD DUP1 SWAP2 SUB SWAP1 RETURN JUMPDEST PUSH0 PUSH0 PUSH0 SWAP1 POP PUSH0 PUSH1 0x1 SWAP1 POP JUMPDEST DUP4 DUP2 GT PUSH2 0x106 JUMPI DUP1 DUP3 PUSH2 0xF1 SWAP2 SWAP1 PUSH2 0x24F JUMP JUMPDEST SWAP2 POP DUP1 DUP1 PUSH2 0xFE SWAP1 PUSH2 0x282 JUMP JUMPDEST SWAP2 POP POP PUSH2 0xDE JUMP JUMPDEST POP DUP1 SWAP2 POP POP SWAP2 SWAP1 POP JUMP JUMPDEST PUSH0 PUSH0 PUSH0 SWAP1 POP PUSH0 PUSH1 0x1 SWAP1 POP JUMPDEST DUP4 DUP2 GT PUSH2 0x143 JUMPI DUP1 DUP3 PUSH2 0x12E SWAP2 SWAP1 PUSH2 0x24F JUMP JUMPDEST SWAP2 POP DUP1 DUP1 PUSH2 0x13B SWAP1 PUSH2 0x282 JUMP JUMPDEST SWAP2 POP POP PUSH2 0x11B JUMP JUMPDEST DUP2 SWAP3 POP POP POP SWAP2 SWAP1 POP JUMP JUMPDEST PUSH0 PUSH0 PUSH0 SWAP1 POP PUSH0 PUSH1 0x1 SWAP1 POP PUSH0 DUP5 SUB PUSH2 0x168 JUMPI PUSH0 SWAP3 POP POP POP PUSH2 0x193 JUMP JUMPDEST JUMPDEST DUP1 DUP3 PUSH2 0x175 SWAP2 SWAP1 PUSH2 0x24F JUMP JUMPDEST SWAP2 POP DUP1 DUP1 PUSH2 0x182 SWAP1 PUSH2 0x282 JUMP JUMPDEST SWAP2 POP POP DUP4 DUP2 GT ISZERO PUSH2 0x169 JUMPI DUP2 SWAP3 POP POP POP JUMPDEST SWAP2 SWAP1 POP JUMP JUMPDEST PUSH0 PUSH0 REVERT JUMPDEST PUSH0 DUP2 SWAP1 POP SWAP2 SWAP1 POP JUMP JUMPDEST PUSH2 0x1AE DUP2 PUSH2 0x19C JUMP JUMPDEST DUP2 EQ PUSH2 0x1B8 JUMPI PUSH0 PUSH0 REVERT JUMPDEST POP JUMP JUMPDEST PUSH0 DUP2 CALLDATALOAD SWAP1 POP PUSH2 0x1C9 DUP2 PUSH2 0x1A5 JUMP JUMPDEST SWAP3 SWAP2 POP POP JUMP JUMPDEST PUSH0 PUSH1 0x20 DUP3 DUP5 SUB SLT ISZERO PUSH2 0x1E4 JUMPI PUSH2 0x1E3 PUSH2 0x198 JUMP JUMPDEST JUMPDEST PUSH0 PUSH2 0x1F1 DUP5 DUP3 DUP6 ADD PUSH2 0x1BB JUMP JUMPDEST SWAP2 POP POP SWAP3 SWAP2 POP POP JUMP JUMPDEST PUSH2 0x203 DUP2 PUSH2 0x19C JUMP JUMPDEST DUP3 MSTORE POP POP JUMP JUMPDEST PUSH0 PUSH1 0x20 DUP3 ADD SWAP1 POP PUSH2 0x21C PUSH0 DUP4 ADD DUP5 PUSH2 0x1FA JUMP JUMPDEST SWAP3 SWAP2 POP POP JUMP JUMPDEST PUSH32 0x4E487B7100000000000000000000000000000000000000000000000000000000 PUSH0 MSTORE PUSH1 0x11 PUSH1 0x4 MSTORE PUSH1 0x24 PUSH0 REVERT JUMPDEST PUSH0 PUSH2 0x259 DUP3 PUSH2 0x19C JUMP JUMPDEST SWAP2 POP PUSH2 0x264 DUP4 PUSH2 0x19C JUMP JUMPDEST SWAP3 POP DUP3 DUP3 ADD SWAP1 POP DUP1 DUP3 GT ISZERO PUSH2 0x27C JUMPI PUSH2 0x27B PUSH2 0x222 JUMP JUMPDEST JUMPDEST SWAP3 SWAP2 POP POP JUMP JUMPDEST PUSH0 PUSH2 0x28C DUP3 PUSH2 0x19C JUMP JUMPDEST SWAP2 POP PUSH32 0xFFFFFFFFFFFFFFFFFFFFFFFFFFFFFFFFFFFFFFFFFFFFFFFFFFFFFFFFFFFFFFFF DUP3 SUB PUSH2 0x2BE JUMPI PUSH2 0x2BD PUSH2 0x222 JUMP JUMPDEST JUMPDEST PUSH1 0x1 DUP3 ADD SWAP1 POP SWAP2 SWAP1 POP JUMP INVALID LOG2 PUSH5 0x6970667358 0x22 SLT KECCAK256 0xAF PUSH4 0xEE2566C5 TLOAD MSTORE8 0xDA 0xAF PUSH1 0xAD LOG4 0xC2 0xFC CALLDATASIZE SWAP10 PUSH0 0x22 RJUMPI 0xE3A1 AND 0xC6 0x29 SWAP11 DUP13 0xB4 PREVRANDAO PUSH8 0x747264736F6C6343 STOP ADDMOD 0x1E STOP CALLER "
				},
				"gasEstimates": {
					"creation": {
						"codeDepositCost": "153400",
						"executionCost": "194",
						"totalCost": "153594"
					},
					"external": {
						"doWhileLoop(uint256)": "infinite",
						"forLoop(uint256)": "infinite",
						"whileLoop(uint256)": "infinite"
					}
				},
				"methodIdentifiers": {
					"doWhileLoop(uint256)": "ff762358",
					"forLoop(uint256)": "456901e4",
					"whileLoop(uint256)": "5a5e80e7"
				}
			},
			"storageLayout": {
				"storage": [],
				"types": null
			},
			"userdoc": {
				"kind": "user",
				"methods": {},
				"version": 1
			}
		}
	}
}