{
	"data": {
		"bytecode": {
			"linkReferences": {},
			"object": "6080604052348015600e575f5ffd5b506105378061001c5f395ff3fe608060405234801561000f575f5ffd5b506004361061003e575f3560e01c8062f86ac7146100425780634dfb0d82146100725780635c215135146100a2575b5f5ffd5b61005c6004803603810190610057919061031f565b6100d2565b604051610069919061037e565b60405180910390f35b61008c6004803603810190610087919061031f565b610101565b604051610099919061037e565b60405180910390f35b6100bc60048036038101906100b7919061031f565b610176565b6040516100c991906103d1565b60405180910390f35b5f816040516020016100e4919061043c565b604051602081830303815290604052805190602001209050919050565b5f600282604051602001610115919061043c565b6040516020818303038152906040526040516101319190610496565b602060405180830381855afa15801561014c573d5f5f3e3d5ffd5b5050506040513d601f19601f8201168201806040525081019061016f91906104d6565b9050919050565b5f60038260405160200161018a919061043c565b6040516020818303038152906040526040516101a69190610496565b602060405180830381855afa1580156101c1573d5f5f3e3d5ffd5b5050506040515160601b9050919050565b5f604051905090565b5f5ffd5b5f5ffd5b5f5ffd5b5f5ffd5b5f601f19601f8301169050919050565b7f4e487b71000000000000000000000000000000000000000000000000000000005f52604160045260245ffd5b610231826101eb565b810181811067ffffffffffffffff821117156102505761024f6101fb565b5b80604052505050565b5f6102626101d2565b905061026e8282610228565b919050565b5f67ffffffffffffffff82111561028d5761028c6101fb565b5b610296826101eb565b9050602081019050919050565b828183375f83830152505050565b5f6102c36102be84610273565b610259565b9050828152602081018484840111156102df576102de6101e7565b5b6102ea8482856102a3565b509392505050565b5f82601f830112610306576103056101e3565b5b81356103168482602086016102b1565b91505092915050565b5f60208284031215610334576103336101db565b5b5f82013567ffffffffffffffff811115610351576103506101df565b5b61035d848285016102f2565b91505092915050565b5f819050919050565b61037881610366565b82525050565b5f6020820190506103915f83018461036f565b92915050565b5f7fffffffffffffffffffffffffffffffffffffffff00000000000000000000000082169050919050565b6103cb81610397565b82525050565b5f6020820190506103e45f8301846103c2565b92915050565b5f81519050919050565b5f81905092915050565b8281835e5f83830152505050565b5f610416826103ea565b61042081856103f4565b93506104308185602086016103fe565b80840191505092915050565b5f610447828461040c565b915081905092915050565b5f81519050919050565b5f81905092915050565b5f61047082610452565b61047a818561045c565b935061048a8185602086016103fe565b80840191505092915050565b5f6104a18284610466565b915081905092915050565b6104b581610366565b81146104bf575f5ffd5b50565b5f815190506104d0816104ac565b92915050565b5f602082840312156104eb576104ea6101db565b5b5f6104f8848285016104c2565b9150509291505056fea2646970667358221220764881f06c97cc0db010f352fdd214f95be66a102ca81735004b6dfa62934ece64736f6c634300081e0033",
			"opcodes": "PUSH1 0x80 PUSH1 0x40 MSTORE CALLVALUE DUP1 ISZERO PUSH1 0xE JUMPI PUSH0 PUSH0 REVERT JUMPDEST POP PUSH2 0x537 DUP1 PUSH2 0x1C PUSH0 CODECOPY PUSH0 RETURN INVALID PUSH1 0x80 PUSH1 0x40 MSTORE CALLVALUE DUP1 ISZERO PUSH2 0xF JUMPI PUSH0 PUSH0 REVERT JUMPDEST POP PUSH1 0x4 CALLDATASIZE LT PUSH2 0x3E JUMPI PUSH0 CALLDATALOAD PUSH1 0xE0 SHR DUP1 PUSH3 0xF86AC7 EQ PUSH2 0x42 JUMPI DUP1 PUSH4 0x4DFB0D82 EQ PUSH2 0x72 JUMPI DUP1 PUSH4 0x5C215135 EQ PUSH2 0xA2 JUMPI JUMPDEST PUSH0 PUSH0 REVERT JUMPDEST PUSH2 0x5C PUSH1 0x4 DUP1 CALLDATASIZE SUB DUP2 ADD SWAP1 PUSH2 0x57 SWAP2 SWAP1 PUSH2 0x31F JUMP JUMPDEST PUSH2 0xD2 JUMP JUMPDEST PUSH1 0x40 MLOAD PUSH2 0x69 SWAP2 SWAP1 PUSH2 0x37E JUMP JUMPDEST PUSH1 0x40 MLOAD DUP1 SWAP2 SUB SWAP1 RETURN JUMPDEST PUSH2 0x8C PUSH1 0x4 DUP1 CALLDATASIZE SUB DUP2 ADD SWAP1 PUSH2 0x87 SWAP2 SWAP1 PUSH2 0x31F JUMP JUMPDEST PUSH2 0x101 JUMP JUMPDEST PUSH1 0x40 MLOAD PUSH2 0x99 SWAP2 SWAP1 PUSH2 0x37E JUMP JUMPDEST PUSH1 0x40 MLOAD DUP1 SWAP2 SUB SWAP1 RETURN JUMPDEST PUSH2 0xBC PUSH1 0x4 DUP1 CALLDATASIZE SUB DUP2 ADD SWAP1 PUSH2 0xB7 SWAP2 SWAP1 PUSH2 0x31F JUMP JUMPDEST PUSH2 0x176 JUMP JUMPDEST PUSH1 0x40 MLOAD PUSH2 0xC9 SWAP2 SWAP1 PUSH2 0x3D1 JUMP JUMPDEST PUSH1 0x40 MLOAD DUP1 SWAP2 SUB SWAP1 RETURN JUMPDEST PUSH0 DUP2 PUSH1 0x40 MLOAD PUSH1 0x20 ADD PUSH2 0xE4 SWAP2 SWAP1 PUSH2 0x43C JUMP JUMPDEST PUSH1 0x40 MLOAD PUSH1 0x20 DUP2 DUP4 SUB SUB DUP2 MSTORE SWAP1 PUSH1 0x40 MSTORE DUP1 MLOAD SWAP1 PUSH1 0x20 ADD KECCAK256 SWAP1 POP SWAP2 SWAP1 POP JUMP JUMPDEST PUSH0 PUSH1 0x2 DUP3 PUSH1 0x40 MLOAD PUSH1 0x20 ADD PUSH2 0x115 SWAP2 SWAP1 PUSH2 0x43C JUMP JUMPDEST PUSH1 0x40 MLOAD PUSH1 0x20 DUP2 DUP4 SUB SUB DUP2 MSTORE SWAP1 PUSH1 0x40 MSTORE PUSH1 0x40 MLOAD PUSH2 0x131 SWAP2 SWAP1 PUSH2 0x496 JUMP JUMPDEST PUSH1 0x20 PUSH1 0x40 MLOAD DUP1 DUP4 SUB DUP2 DUP6 GAS STATICCALL ISZERO DUP1 ISZERO PUSH2 0x14C JUMPI RETURNDATASIZE PUSH0 PUSH0 RETURNDATACOPY RETURNDATASIZE PUSH0 REVERT JUMPDEST POP POP POP PUSH1 0x40 MLOAD RETURNDATASIZE PUSH1 0x1F NOT PUSH1 0x1F DUP3 ADD AND DUP3 ADD DUP1 PUSH1 0x40 MSTORE POP DUP2 ADD SWAP1 PUSH2 0x16F SWAP2 SWAP1 PUSH2 0x4D6 JUMP JUMPDEST SWAP1 POP SWAP2 SWAP1 POP JUMP JUMPDEST PUSH0 PUSH1 0x3 DUP3 PUSH1 0x40 MLOAD PUSH1 0x20 ADD PUSH2 0x18A SWAP2 SWAP1 PUSH2 0x43C JUMP JUMPDEST PUSH1 0x40 MLOAD PUSH1 0x20 DUP2 DUP4 SUB SUB DUP2 MSTORE SWAP1 PUSH1 0x40 MSTORE PUSH1 0x40 MLOAD PUSH2 0x1A6 SWAP2 SWAP1 PUSH2 0x496 JUMP JUMPDEST PUSH1 0x20 PUSH1 0x40 MLOAD DUP1 DUP4 SUB DUP2 DUP6 GAS STATICCALL ISZERO DUP1 ISZERO PUSH2 0x1C1 JUMPI RETURNDATASIZE PUSH0 PUSH0 RETURNDATACOPY RETURNDATASIZE PUSH0 REVERT JUMPDEST POP POP POP PUSH1 0x40 MLOAD MLOAD PUSH1 0x60 SHL SWAP1 POP SWAP2 SWAP1 POP JUMP JUMPDEST PUSH0 PUSH1 0x40 MLOAD SWAP1 POP SWAP1 JUMP JUMPDEST PUSH0 PUSH0 REVERT JUMPDEST PUSH0 PUSH0 REVERT JUMPDEST PUSH0 PUSH0 REVERT JUMPDEST PUSH0 PUSH0 REVERT JUMPDEST PUSH0 PUSH1 0x1F NOT PUSH1 0x1F DUP4 ADD AND SWAP1 POP SWAP2 SWAP1 POP JUMP JUMPDEST PUSH32 0x4E487B7100000000000000000000000000000000000000000000000000000000 PUSH0 MSTORE PUSH1 0x41 PUSH1 0x4 MSTORE PUSH1 0x24 PUSH0 REVERT JUMPDEST PUSH2 0x231 DUP3 PUSH2 0x1EB JUMP JUMPDEST DUP2 ADD DUP2 DUP2 LT PUSH8 0xFFFFFFFFFFFFFFFF DUP3 GT OR ISZERO PUSH2 0x250 JUMPI PUSH2 0x24F PUSH2 0x1FB JUMP JUMPDEST JUMPDEST DUP1 PUSH1 0x40 MSTORE POP POP POP JUMP JUMPDEST PUSH0 PUSH2 0x262 PUSH2 0x1D2 JUMP JUMPDEST SWAP1 POP PUSH2 0x26E DUP3 DUP3 PUSH2 0x228 JUMP JUMPDEST SWAP2 SWAP1 POP JUMP JUMPDEST PUSH0 PUSH8 0xFFFFFFFFFFFFFFFF DUP3 GT ISZERO PUSH2 0x28D JUMPI PUSH2 0x28C PUSH2 0x1FB JUMP JUMPDEST JUMPDEST PUSH2 0x296 DUP3 PUSH2 0x1EB JUMP JUMPDEST SWAP1 POP PUSH1 0x20 DUP2 ADD SWAP1 POP SWAP2 SWAP1 POP JUMP JUMPDEST DUP3 DUP2 DUP4 CALLDATACOPY PUSH0 DUP4 DUP4 ADD MSTORE POP POP POP JUMP JUMPDEST PUSH0 PUSH2 0x2C3 PUSH2 0x2BE DUP5 PUSH2 0x273 JUMP JUMPDEST PUSH2 0x259 JUMP JUMPDEST SWAP1 POP DUP3 DUP2 MSTORE PUSH1 0x20 DUP2 ADD DUP5 DUP5 DUP5 ADD GT ISZERO PUSH2 0x2DF JUMPI PUSH2 0x2DE PUSH2 0x1E7 JUMP JUMPDEST JUMPDEST PUSH2 0x2EA DUP5 DUP3 DUP6 PUSH2 0x2A3 JUMP JUMPDEST POP SWAP4 SWAP3 POP POP POP JUMP JUMPDEST PUSH0 DUP3 PUSH1 0x1F DUP4 ADD SLT PUSH2 0x306 JUMPI PUSH2 0x305 PUSH2 0x1E3 JUMP JUMPDEST JUMPDEST DUP2 CALLDATALOAD PUSH2 0x316 DUP5 DUP3 PUSH1 0x20 DUP7 ADD PUSH2 0x2B1 JUMP JUMPDEST SWAP2 POP POP SWAP3 SWAP2 POP POP JUMP JUMPDEST PUSH0 PUSH1 0x20 DUP3 DUP5 SUB SLT ISZERO PUSH2 0x334 JUMPI PUSH2 0x333 PUSH2 0x1DB JUMP JUMPDEST JUMPDEST PUSH0 DUP3 ADD CALLDATALOAD PUSH8 0xFFFFFFFFFFFFFFFF DUP2 GT ISZERO PUSH2 0x351 JUMPI PUSH2 0x350 PUSH2 0x1DF JUMP JUMPDEST JUMPDEST PUSH2 0x35D DUP5 DUP3 DUP6 ADD PUSH2 0x2F2 JUMP JUMPDEST SWAP2 POP POP SWAP3 SWAP2 POP POP JUMP JUMPDEST PUSH0 DUP2 SWAP1 POP SWAP2 SWAP1 POP JUMP JUMPDEST PUSH2 0x378 DUP2 PUSH2 0x366 JUMP JUMPDEST DUP3 MSTORE POP POP JUMP JUMPDEST PUSH0 PUSH1 0x20 DUP3 ADD SWAP1 POP PUSH2 0x391 PUSH0 DUP4 ADD DUP5 PUSH2 0x36F JUMP JUMPDEST SWAP3 SWAP2 POP POP JUMP JUMPDEST PUSH0 PUSH32 0xFFFFFFFFFFFFFFFFFFFFFFFFFFFFFFFFFFFFFFFF000000000000000000000000 DUP3 AND SWAP1 POP SWAP2 SWAP1 POP JUMP JUMPDEST PUSH2 0x3CB DUP2 PUSH2 0x397 JUMP JUMPDEST DUP3 MSTORE POP POP JUMP JUMPDEST PUSH0 PUSH1 0x20 DUP3 ADD SWAP1 POP PUSH2 0x3E4 PUSH0 DUP4 ADD DUP5 PUSH2 0x3C2 JUMP JUMPDEST SWAP3 SWAP2 POP POP JUMP JUMPDEST PUSH0 DUP2 MLOAD SWAP1 POP SWAP2 SWAP1 POP JUMP JUMPDEST PUSH0 DUP2 SWAP1 POP SWAP3 SWAP2 POP POP JUMP JUMPDEST DUP3 DUP2 DUP4 MCOPY PUSH0 DUP4 DUP4 ADD MSTORE POP POP POP JUMP JUMPDEST PUSH0 PUSH2 0x416 DUP3 PUSH2 0x3EA JUMP JUMPDEST PUSH2 0x420 DUP2 DUP6 PUSH2 0x3F4 JUMP JUMPDEST SWAP4 POP PUSH2 0x430 DUP2 DUP6 PUSH1 0x20 DUP7 ADD PUSH2 0x3FE JUMP JUMPDEST DUP1 DUP5 ADD SWAP2 POP POP SWAP3 SWAP2 POP POP JUMP JUMPDEST PUSH0 PUSH2 0x447 DUP3 DUP5 PUSH2 0x40C JUMP JUMPDEST SWAP2 POP DUP2 SWAP1 POP SWAP3 SWAP2 POP POP JUMP JUMPDEST PUSH0 DUP2 MLOAD SWAP1 POP SWAP2 SWAP1 POP JUMP JUMPDEST PUSH0 DUP2 SWAP1 POP SWAP3 SWAP2 POP POP JUMP JUMPDEST PUSH0 PUSH2 0x470 DUP3 PUSH2 0x452 JUMP JUMPDEST PUSH2 0x47A DUP2 DUP6 PUSH2 0x45C JUMP JUMPDEST SWAP4 POP PUSH2 0x48A DUP2 DUP6 PUSH1 0x20 DUP7 ADD PUSH2 0x3FE JUMP JUMPDEST DUP1 DUP5 ADD SWAP2 POP POP SWAP3 SWAP2 POP POP JUMP JUMPDEST PUSH0 PUSH2 0x4A1 DUP3 DUP5 PUSH2 0x466 JUMP JUMPDEST SWAP2 POP DUP2 SWAP1 POP SWAP3 SWAP2 POP POP JUMP JUMPDEST PUSH2 0x4B5 DUP2 PUSH2 0x366 JUMP JUMPDEST DUP2 EQ PUSH2 0x4BF JUMPI PUSH0 PUSH0 REVERT JUMPDEST POP JUMP JUMPDEST PUSH0 DUP2 MLOAD SWAP1 POP PUSH2 0x4D0 DUP2 PUSH2 0x4AC JUMP JUMPDEST SWAP3 SWAP2 POP POP JUMP JUMPDEST PUSH0 PUSH1 0x20 DUP3 DUP5 SUB SLT ISZERO PUSH2 0x4EB JUMPI PUSH2 0x4EA PUSH2 0x1DB JUMP JUMPDEST JUMPDEST PUSH0 PUSH2 0x4F8 DUP5 DUP3 DUP6 ADD PUSH2 0x4C2 JUMP JUMPDEST SWAP2 POP POP SWAP3 SWAP2 POP POP JUMP INVALID LOG2 PUSH5 0x6970667358 0x22 SLT KECCAK256 PUSH23 0x4881F06C97CC0DB010F352FDD214F95BE66A102CA81735 STOP 0x4B PUSH14 0xFA62934ECE64736F6C634300081E STOP CALLER "
		},
		"gasEstimates": {
			"creation": {
				"codeDepositCost": "267000",
				"executionCost": "304",
				"totalCost": "267304"
			},
			"external": {
				"getKeccak256(string)": "infinite",
				"getRipemd160(string)": "infinite",
				"getSha256(string)": "infinite"
			}
		},
		"methodIdentifiers": {
			"getKeccak256(string)": "00f86ac7",
			"getRipemd160(string)": "5c215135",
			"getSha256(string)": "4dfb0d82"
		}
	},
	"abi": [
		{
			"inputs": [
				{
					"internalType": "string",
					"name": "input",
					"type": "string"
				}
			],
			"name": "getKeccak256",
			"outputs": [
				{
					"internalType": "bytes32",
					"name": "",
					"type": "bytes32"
				}
			],
			"stateMutability": "pure",
			"type": "function"
		},
		{
			"inputs": [
				{
					"internalType": "string",
					"name": "input",
					"type": "string"
				}
			],
			"name": "getRipemd160",
			"outputs": [
				{
					"internalType": "bytes20",
					"name": "",
					"type": "bytes20"
				}
			],
			"stateMutability": "pure",
			"type": "function"
		},
		{
			"inputs": [
				{
					"internalType": "string",
					"name": "input",
					"type": "string"
				}
			],
			"name": "getSha256",
			"outputs": [
				{
					"internalType": "bytes32",
					"name": "",
					"type": "bytes32"
				}
			],
			"stateMutability": "pure",
			"type": "function"
		}
	]
}